{
  "contractName": "Calculator",
  "abi": [
    {
      "inputs": [],
      "stateMutability": "nonpayable",
      "type": "constructor"
    },
    {
      "inputs": [],
      "name": "owner",
      "outputs": [
        {
          "internalType": "address",
          "name": "",
          "type": "address"
        }
      ],
      "stateMutability": "view",
      "type": "function",
      "constant": true
    },
    {
      "inputs": [],
      "name": "result",
      "outputs": [
        {
          "internalType": "uint256",
          "name": "",
          "type": "uint256"
        }
      ],
      "stateMutability": "view",
      "type": "function",
      "constant": true
    },
    {
      "inputs": [
        {
          "internalType": "uint256",
          "name": "a",
          "type": "uint256"
        },
        {
          "internalType": "uint256",
          "name": "b",
          "type": "uint256"
        }
      ],
      "name": "add",
      "outputs": [],
      "stateMutability": "payable",
      "type": "function",
      "payable": true
    },
    {
      "inputs": [
        {
          "internalType": "uint256",
          "name": "a",
          "type": "uint256"
        },
        {
          "internalType": "uint256",
          "name": "b",
          "type": "uint256"
        }
      ],
      "name": "subtract",
      "outputs": [],
      "stateMutability": "payable",
      "type": "function",
      "payable": true
    },
    {
      "inputs": [
        {
          "internalType": "uint256",
          "name": "a",
          "type": "uint256"
        },
        {
          "internalType": "uint256",
          "name": "b",
          "type": "uint256"
        }
      ],
      "name": "multiply",
      "outputs": [],
      "stateMutability": "payable",
      "type": "function",
      "payable": true
    },
    {
      "inputs": [
        {
          "internalType": "uint256",
          "name": "a",
          "type": "uint256"
        },
        {
          "internalType": "uint256",
          "name": "b",
          "type": "uint256"
        }
      ],
      "name": "divide",
      "outputs": [],
      "stateMutability": "payable",
      "type": "function",
      "payable": true
    },
    {
      "inputs": [],
      "name": "withdraw",
      "outputs": [],
      "stateMutability": "nonpayable",
      "type": "function"
    }
  ],
  "bytecode": "0x608060405234801561001057600080fd5b5033600160006101000a81548173ffffffffffffffffffffffffffffffffffffffff021916908373ffffffffffffffffffffffffffffffffffffffff160217905550610817806100616000396000f3fe6080604052600436106100705760003560e01c8063653721471161004e57806365372147146100c4578063771602f7146100ef5780638da5cb5b1461010b578063f88e9fbf1461013657610070565b8063165c4a16146100755780633ccfd60b146100915780633ef5e445146100a8575b600080fd5b61008f600480360381019061008a919061045a565b610152565b005b34801561009d57600080fd5b506100a66101b4565b005b6100c260048036038101906100bd919061045a565b6102af565b005b3480156100d057600080fd5b506100d9610311565b6040516100e691906105ef565b60405180910390f35b6101096004803603810190610104919061045a565b610317565b005b34801561011757600080fd5b50610120610379565b60405161012d9190610574565b60405180910390f35b610150600480360381019061014b919061045a565b61039f565b005b66038d7ea4c680008034101561019d576040517f08c379a00000000000000000000000000000000000000000000000000000000081526004016101949061058f565b60405180910390fd5b81836101a991906106a2565b600081905550505050565b600160009054906101000a900473ffffffffffffffffffffffffffffffffffffffff1673ffffffffffffffffffffffffffffffffffffffff163373ffffffffffffffffffffffffffffffffffffffff1614610244576040517f08c379a000000000000000000000000000000000000000000000000000000000815260040161023b906105af565b60405180910390fd5b600160009054906101000a900473ffffffffffffffffffffffffffffffffffffffff1673ffffffffffffffffffffffffffffffffffffffff166108fc479081150290604051600060405180830381858888f193505050501580156102ac573d6000803e3d6000fd5b50565b66038d7ea4c68000803410156102fa576040517f08c379a00000000000000000000000000000000000000000000000000000000081526004016102f19061058f565b60405180910390fd5b818361030691906106fc565b600081905550505050565b60005481565b66038d7ea4c6800080341015610362576040517f08c379a00000000000000000000000000000000000000000000000000000000081526004016103599061058f565b60405180910390fd5b818361036e919061061b565b600081905550505050565b600160009054906101000a900473ffffffffffffffffffffffffffffffffffffffff1681565b66038d7ea4c68000803410156103ea576040517f08c379a00000000000000000000000000000000000000000000000000000000081526004016103e19061058f565b60405180910390fd5b600082141561042e576040517f08c379a0000000000000000000000000000000000000000000000000000000008152600401610425906105cf565b60405180910390fd5b818361043a9190610671565b600081905550505050565b600081359050610454816107ca565b92915050565b6000806040838503121561046d57600080fd5b600061047b85828601610445565b925050602061048c85828601610445565b9150509250929050565b61049f81610730565b82525050565b60006104b260178361060a565b91507f496e73756666696369656e742045746865722073656e740000000000000000006000830152602082019050919050565b60006104f260178361060a565b91507f4f6e6c79206f776e65722063616e2077697468647261770000000000000000006000830152602082019050919050565b600061053260158361060a565b91507f43616e6e6f7420646976696465206279207a65726f00000000000000000000006000830152602082019050919050565b61056e81610762565b82525050565b60006020820190506105896000830184610496565b92915050565b600060208201905081810360008301526105a8816104a5565b9050919050565b600060208201905081810360008301526105c8816104e5565b9050919050565b600060208201905081810360008301526105e881610525565b9050919050565b60006020820190506106046000830184610565565b92915050565b600082825260208201905092915050565b600061062682610762565b915061063183610762565b9250827fffffffffffffffffffffffffffffffffffffffffffffffffffffffffffffffff038211156106665761066561076c565b5b828201905092915050565b600061067c82610762565b915061068783610762565b9250826106975761069661079b565b5b828204905092915050565b60006106ad82610762565b91506106b883610762565b9250817fffffffffffffffffffffffffffffffffffffffffffffffffffffffffffffffff04831182151516156106f1576106f061076c565b5b828202905092915050565b600061070782610762565b915061071283610762565b9250828210156107255761072461076c565b5b828203905092915050565b600061073b82610742565b9050919050565b600073ffffffffffffffffffffffffffffffffffffffff82169050919050565b6000819050919050565b7f4e487b7100000000000000000000000000000000000000000000000000000000600052601160045260246000fd5b7f4e487b7100000000000000000000000000000000000000000000000000000000600052601260045260246000fd5b6107d381610762565b81146107de57600080fd5b5056fea2646970667358221220ccadf77c8d5748990efb0ad17f76f563acd3ad0db8777a693814f1b81bf94d0964736f6c63430008000033",
  "immutableReferences": {},
  "source": "// contracts/Calculator.sol\n// SPDX-License-Identifier: MIT\npragma solidity ^0.8.0;\n\ncontract Calculator {\n    uint256 public result;\n\n    modifier costs(uint256 amount) {\n        require(msg.value >= amount, \"Insufficient Ether sent\");\n        _;\n    }\n\n    function add(uint256 a, uint256 b) public payable costs(1e15) {\n        result = a + b;\n    }\n\n    function subtract(uint256 a, uint256 b) public payable costs(1e15) {\n        result = a - b;\n    }\n\n    function multiply(uint256 a, uint256 b) public payable costs(1e15) {\n        result = a * b;\n    }\n\n    function divide(uint256 a, uint256 b) public payable costs(1e15) {\n        require(b != 0, \"Cannot divide by zero\");\n        result = a / b;\n    }\n\n    // Allow withdrawals (optional admin feature)\n    address public owner;\n\n    constructor() {\n        owner = msg.sender;\n    }\n\n    function withdraw() public {\n        require(msg.sender == owner, \"Only owner can withdraw\");\n        payable(owner).transfer(address(this).balance);\n    }\n}\n",
  "sourcePath": "/home/nziza/Documents/code/web3/calculator/contracts/Calculator.sol",
  "compiler": {
    "name": "solc",
    "version": "0.8.0+commit.c7dfd78e.Emscripten.clang"
  },
  "schemaVersion": "3.4.16",
  "updatedAt": "2025-05-13T11:11:49.608Z",
  "networkType": "ethereum",
  "devdoc": {
    "kind": "dev",
    "methods": {},
    "version": 1
  },
  "userdoc": {
    "kind": "user",
    "methods": {},
    "version": 1
  }
}