{
  "contractName": "Calculator",
  "abi": [
    {
      "inputs": [],
      "name": "result",
      "outputs": [
        {
          "internalType": "uint256",
          "name": "",
          "type": "uint256"
        }
      ],
      "stateMutability": "view",
      "type": "function",
      "constant": true
    },
    {
      "inputs": [
        {
          "internalType": "uint256",
          "name": "a",
          "type": "uint256"
        },
        {
          "internalType": "uint256",
          "name": "b",
          "type": "uint256"
        }
      ],
      "name": "add",
      "outputs": [],
      "stateMutability": "nonpayable",
      "type": "function"
    },
    {
      "inputs": [
        {
          "internalType": "uint256",
          "name": "a",
          "type": "uint256"
        },
        {
          "internalType": "uint256",
          "name": "b",
          "type": "uint256"
        }
      ],
      "name": "subtract",
      "outputs": [],
      "stateMutability": "nonpayable",
      "type": "function"
    },
    {
      "inputs": [
        {
          "internalType": "uint256",
          "name": "a",
          "type": "uint256"
        },
        {
          "internalType": "uint256",
          "name": "b",
          "type": "uint256"
        }
      ],
      "name": "multiply",
      "outputs": [],
      "stateMutability": "nonpayable",
      "type": "function"
    },
    {
      "inputs": [
        {
          "internalType": "uint256",
          "name": "a",
          "type": "uint256"
        },
        {
          "internalType": "uint256",
          "name": "b",
          "type": "uint256"
        }
      ],
      "name": "divide",
      "outputs": [],
      "stateMutability": "nonpayable",
      "type": "function"
    }
  ],
  "bytecode": "0x608060405234801561001057600080fd5b50610442806100206000396000f3fe608060405234801561001057600080fd5b50600436106100575760003560e01c8063165c4a161461005c5780633ef5e445146100785780636537214714610094578063771602f7146100b2578063f88e9fbf146100ce575b600080fd5b610076600480360381019061007191906101a1565b6100ea565b005b610092600480360381019061008d91906101a1565b610100565b005b61009c610116565b6040516100a9919061024c565b60405180910390f35b6100cc60048036038101906100c791906101a1565b61011c565b005b6100e860048036038101906100e391906101a1565b610132565b005b80826100f691906102ff565b6000819055505050565b808261010c9190610359565b6000819055505050565b60005481565b80826101289190610278565b6000819055505050565b6000811415610176576040517f08c379a000000000000000000000000000000000000000000000000000000000815260040161016d9061022c565b60405180910390fd5b808261018291906102ce565b6000819055505050565b60008135905061019b816103f5565b92915050565b600080604083850312156101b457600080fd5b60006101c28582860161018c565b92505060206101d38582860161018c565b9150509250929050565b60006101ea601583610267565b91507f43616e6e6f7420646976696465206279207a65726f00000000000000000000006000830152602082019050919050565b6102268161038d565b82525050565b60006020820190508181036000830152610245816101dd565b9050919050565b6000602082019050610261600083018461021d565b92915050565b600082825260208201905092915050565b60006102838261038d565b915061028e8361038d565b9250827fffffffffffffffffffffffffffffffffffffffffffffffffffffffffffffffff038211156102c3576102c2610397565b5b828201905092915050565b60006102d98261038d565b91506102e48361038d565b9250826102f4576102f36103c6565b5b828204905092915050565b600061030a8261038d565b91506103158361038d565b9250817fffffffffffffffffffffffffffffffffffffffffffffffffffffffffffffffff048311821515161561034e5761034d610397565b5b828202905092915050565b60006103648261038d565b915061036f8361038d565b92508282101561038257610381610397565b5b828203905092915050565b6000819050919050565b7f4e487b7100000000000000000000000000000000000000000000000000000000600052601160045260246000fd5b7f4e487b7100000000000000000000000000000000000000000000000000000000600052601260045260246000fd5b6103fe8161038d565b811461040957600080fd5b5056fea2646970667358221220b5437d04c1fdd121bdc4f176b9de021a655ef60f4f98fa583ed352d81f00eaf464736f6c63430008000033",
  "immutableReferences": {},
  "source": "// contracts/Calculator.sol\n// SPDX-License-Identifier: MIT\npragma solidity ^0.8.0;\n\ncontract Calculator {\n    uint256 public result;\n\n    function add(uint256 a, uint256 b) public {\n        result = a + b;\n    }\n\n    function subtract(uint256 a, uint256 b) public {\n        result = a - b;\n    }\n\n    function multiply(uint256 a, uint256 b) public {\n        result = a * b;\n    }\n\n    function divide(uint256 a, uint256 b) public {\n        require(b != 0, \"Cannot divide by zero\");\n        result = a / b;\n    }\n}",
  "sourcePath": "/home/nziza/Documents/code/web3/calculator/contracts/Calculator.sol",
  "compiler": {
    "name": "solc",
    "version": "0.8.0+commit.c7dfd78e.Emscripten.clang"
  },
  "schemaVersion": "3.4.16",
  "updatedAt": "2025-03-17T11:35:23.988Z",
  "networkType": "ethereum",
  "devdoc": {
    "kind": "dev",
    "methods": {},
    "version": 1
  },
  "userdoc": {
    "kind": "user",
    "methods": {},
    "version": 1
  }
}